:100000000C9472000C9493000C9493000C94930045
:100010000C9493000C94B00D0C948D0C0C949300E4
:100020000C9493000C9493000C9493000C94930004
:100030000C9493000C9493000C9493000C949300F4
:100040000C9493000C9493000C9493000C949300E4
:100050000C940F1C0C9493000C9493000C9493003C
:100060000C9493000C94EF0E0C9493000C9493005A
:100070000C9493000C9493000C9493000C949300B4
:100080000C9493000C9493000C9493000C94251BF7
:100090000C9493000C9493000C9493000C94930094
:1000A0000C9493000C9493000C9493000C94930084
:1000B0000C9493000C94421C0C9493000C949300A9
:1000C0000C9493000C9493000C9493000C94930064
:1000D0000C9493000C9493000C9493000C94930054
:1000E0000C94930011241FBECFEFD1E2DEBFCDBF31
:1000F00000E00CBF14E0A0E0B2E0E2EDF2E700E0C7
:100100000BBF02C007900D92A03DB107D9F715E0D3
:10011000A0EDB4E001C01D92AD39B107E1F70E9436
:10012000831F0C9467390C9400000F931F93DF9387
:10013000CF93CDB7DEB7C057D0400FB6F894DEBF2F
:100140000FBECDBFFE01E359FF4F80E090E0A0E875
:10015000BFE380839183A283B3838E0107591F4F2E
:10016000FE01E359FF4F60817181828193812DEC03
:100170003CEC4CE255E40E94F431DC01CB01F80187
:1001800080839183A283B383FE01E759FF4F60818F
:1001900071818281938120E030E040E85FE30E943A
:1001A000FA33882344F4FE01E959FF4F81E090E0DF
:1001B0009183808364C0FE01E759FF4F60817181A4
:1001C0008281938120E03FEF4FE757E40E949A330A
:1001D00018160CF043C0FE01E359FF4F6081718196
:1001E0008281938120E030E040E251E40E94F431CA
:1001F000DC01CB018E0109591F4FBC01CD010E94CA
:10020000B91FDC01CB01F801918380831FC0FE017F
:10021000EB59FF4F84E191E091838083FE01EB591C
:10022000FF4F808191810197F1F7FE01EB59FF4F5C
:1002300091838083DE01A959BF4FFE01E959FF4F29
:1002400080819181019711969C938E93FE01E959CB
:10025000FF4F808191810097D1F627C08E01095907
:100260001F4FFE01E759FF4F6081718182819381A9
:100270000E94B91FDC01CB01F80191838083DE016C
:10028000AD59BF4FFE01E959FF4F808191818D9398
:100290009C93FE01ED59FF4F808191810197F1F709
:1002A000FE01ED59FF4F91838083A8E2B0E0E8E2C0
:1002B000F0E080818E7F8C93A8E2B0E0E8E2F0E08D
:1002C00080818D7F8C93E8E2F0E080E38083A8E278
:1002D000B0E0E8E2F0E0808184608C93FE01E15AB6
:1002E000FF4F80E090E0A0EAB0E480839183A28396
:1002F000B3838E01055A1F4FFE01E15AFF4F608103
:100300007181828193812DEC3CEC4CE255E40E949A
:10031000F431DC01CB01F80180839183A283B383A4
:10032000FE01E55AFF4F608171818281938120E057
:1003300030E040E85FE30E94FA33882344F4FE0192
:10034000E75AFF4F81E090E09183808364C0FE0113
:10035000E55AFF4F608171818281938120E03FEFF8
:100360004FE757E40E949A3318160CF043C0FE0181
:10037000E15AFF4F608171818281938120E030E0FA
:1003800040E251E40E94F431DC01CB018E01075AB6
:100390001F4FBC01CD010E94B91FDC01CB01F80148
:1003A000918380831FC0FE01E95AFF4F84E191E0F1
:1003B00091838083FE01E95AFF4F808191810197EB
:1003C000F1F7FE01E95AFF4F91838083DE01A75ABE
:1003D000BF4FFE01E75AFF4F80819181019711962F
:1003E0009C938E93FE01E75AFF4F80819181009785
:1003F000D1F627C08E01075A1F4FFE01E55AFF4F65
:1004000060817181828193810E94B91FDC01CB01DF
:10041000F80191838083DE01AB5ABF4FFE01E75A9A
:10042000FF4F808191818D939C93FE01EB5AFF4F8A
:10043000808191810197F1F7FE01EB5AFF4F918383
:100440008083A8E2B0E0E8E2F0E080818B7F8C93CB
:10045000FE01EF5AFF4F80E090E0A0E8BFE3808309
:100460009183A283B3838E01035B1F4FFE01EF5A7A
:10047000FF4F60817181828193812DEC3CEC4CE2D5
:1004800055E40E94F431DC01CB01F80180839183B3
:10049000A283B383FE01E35BFF4F608171818281A0
:1004A000938120E030E040E85FE30E94FA33882344
:1004B00044F4FE01E55BFF4F81E090E0918380838F
:1004C00064C0FE01E35BFF4F608171818281938193
:1004D00020E03FEF4FE757E40E949A3318160CF0E4
:1004E00043C0FE01EF5AFF4F608171818281938189
:1004F00020E030E040E251E40E94F431DC01CB0125
:100500008E01055B1F4FBC01CD010E94B91FDC01AC
:10051000CB01F801918380831FC0FE01E75BFF4F91
:1005200084E191E091838083FE01E75BFF4F80814E
:1005300091810197F1F7FE01E75BFF4F9183808383
:10054000DE01A55BBF4FFE01E55BFF4F808191811E
:10055000019711969C938E93FE01E55BFF4F80817E
:1005600091810097D1F627C08E01055B1F4FFE01D8
:10057000E35BFF4F60817181828193810E94B91F8B
:10058000DC01CB01F80191838083DE01A95BBF4FC1
:10059000FE01E55BFF4F808191818D939C93FE016D
:1005A000E95BFF4F808191810197F1F7FE01E95BE3
:1005B000FF4F91838083A8E2B0E0E8E2F0E0808121
:1005C0008E7F8C93A8E2B0E0E8E2F0E080818D7F3E
:1005D0008C93E8E2F0E080E38083A8E2B0E0E8E218
:1005E000F0E0808184608C93FE01ED5BFF4F80E042
:1005F00090E0A0EAB0E480839183A283B3838E016C
:10060000015C1F4FFE01ED5BFF4F608171818281B4
:1006100093812DEC3CEC4CE255E40E94F431DC017A
:10062000CB01F80180839183A283B383FE01FF96FF
:10063000608171818281938120E030E040E85FE356
:100640000E94FA3388232CF481E090E09EAF8DAFB6
:1006500046C0FE01FF96608171818281938120E016
:100660003FEF4FE757E40E949A33181664F5FE01F6
:10067000ED5BFF4F608171818281938120E030E0EA
:1006800040E251E40E94F431DC01CB01BC01CD0118
:100690000E94B91FDC01CB019EAF8DAF0FC084E17A
:1006A00091E09CAF8BAF8BAD9CAD0197F1F79CAF08
:1006B0008BAF8DAD9EAD01979EAF8DAF8DAD9EADD5
:1006C000009769F716C0FE01FF96608171818281F3
:1006D00093810E94B91FDC01CB019EAF8DAF8DAD20
:1006E0009EAD9AAF89AF89AD9AAD0197F1F79AAFF8
:1006F00089AFA8E2B0E0E8E2F0E080818B7F8C93E4
:1007000080E090E0A0E8BFE38DAB9EABAFABB8AFAD
:100710006DA97EA98FA998AD2DEC3CEC4CE255E477
:100720000E94F431DC01CB0189AB9AABABABBCAB23
:1007300069A97AA98BA99CA920E030E040E85FE391
:100740000E94FA3388232CF481E090E098AB8FA7C5
:100750003FC069A97AA98BA99CA920E03FEF4FE788
:1007600057E40E949A3318164CF56DA97EA98FA9FB
:1007700098AD20E030E040E251E40E94F431DC0129
:10078000CB01BC01CD010E94B91FDC01CB0198ABAC
:100790008FA70FC084E191E09EA78DA78DA59EA590
:1007A0000197F1F79EA78DA78FA598A9019798AB00
:1007B0008FA78FA598A9009769F714C069A97AA98E
:1007C0008BA99CA90E94B91FDC01CB0198AB8FA714
:1007D0008FA598A99CA78BA78BA59CA50197F1F73E
:1007E0009CA78BA7A8E2B0E0E8E2F0E080818E7FD2
:1007F0008C93A8E2B0E0E8E2F0E080818D7F8C93FA
:10080000E8E2F0E080E38083A8E2B0E0E8E2F0E034
:10081000808184608C9380E090E0A0EAB0E48FA3B4
:1008200098A7A9A7BAA76FA178A589A59AA52DEC25
:100830003CEC4CE255E40E94F431DC01CB018BA38B
:100840009CA3ADA3BEA36BA17CA18DA19EA120E022
:1008500030E040E85FE30E94FA3388232CF481E023
:1008600090E09AA389A33FC06BA17CA18DA19EA11A
:1008700020E03FEF4FE757E40E949A3318164CF5FB
:100880006FA178A589A59AA520E030E040E251E467
:100890000E94F431DC01CB01BC01CD010E94B91FE3
:1008A000DC01CB019AA389A30FC084E191E098A356
:1008B0008F8F8F8D98A10197F1F798A38F8F89A1C2
:1008C0009AA101979AA389A389A19AA1009769F790
:1008D00014C06BA17CA18DA19EA10E94B91FDC0157
:1008E000CB019AA389A389A19AA19E8F8D8F8D8D0B
:1008F0009E8D0197F1F79E8F8D8FA8E2B0E0E8E220
:10090000F0E080818B7F8C9380E090E0A0E8BFE3F3
:10091000898F9A8FAB8FBC8F698D7A8D8B8D9C8DD3
:100920002DEC3CEC4CE255E40E94F431DC01CB01AF
:100930008D8B9E8BAF8BB88F6D897E898F89988DBB
:1009400020E030E040E85FE30E94FA3388232CF493
:1009500081E090E09C8B8B8B3FC06D897E898F8975
:10096000988D20E03FEF4FE757E40E949A33181626
:100970004CF5698D7A8D8B8D9C8D20E030E040E2C6
:1009800051E40E94F431DC01CB01BC01CD010E9495
:10099000B91FDC01CB019C8B8B8B0FC084E191E0F4
:1009A0009A8B898B89899A890197F1F79A8B898B20
:1009B0008B899C8901979C8B8B8B8B899C89009759
:1009C00069F714C06D897E898F89988D0E94B91F3F
:1009D000DC01CB019C8B8B8B8B899C89988B8F87BF
:1009E0008F8598890197F1F7988B8F87A8E2B0E0FF
:1009F000E8E2F0E080818E7F8C93A8E2B0E0E8E24C
:100A0000F0E080818D7F8C93E8E2F0E080E28083EB
:100A1000A8E2B0E0E8E2F0E0808184608C9380E0BE
:100A200090E0A0EAB0E48B879C87AD87BE876B859A
:100A30007C858D859E852DEC3CEC4CE255E40E9436
:100A4000F431DC01CB018F839887A987BA876F8146
:100A5000788589859A8520E030E040E85FE30E9450
:100A6000FA3388232CF481E090E09E838D833FC08D
:100A70006F81788589859A8520E03FEF4FE757E4BD
:100A80000E949A3318164CF56B857C858D859E8562
:100A900020E030E040E251E40E94F431DC01CB017F
:100AA000BC01CD010E94B91FDC01CB019E838D8367
:100AB0000FC084E191E09C838B838B819C810197A3
:100AC000F1F79C838B838D819E8101979E838D831B
:100AD0008D819E81009769F714C06F817885898523
:100AE0009A850E94B91FDC01CB019E838D838D8185
:100AF0009E819A83898389819A810197F1F79A83EC
:100B00008983A8E2B0E0E8E2F0E080818B7F8C93FB
:100B1000C059DF4F0FB6F894DEBF0FBECDBFCF91E7
:100B2000DF911F910F910895DF93CF93CDB7DEB77B
:100B30002E970FB6F894DEBF0FBECDBF80E090E0D9
:100B4000A0E8BFE38B879C87AD87BE876B857C85DC
:100B50008D859E852DEC3CEC4CE255E40E94F431F1
:100B6000DC01CB018F839887A987BA876F8178854D
:100B700089859A8520E030E040E85FE30E94FA33FF
:100B800088232CF481E090E09E838D833FC06F81A9
:100B9000788589859A8520E03FEF4FE757E40E94EA
:100BA0009A3318164CF56B857C858D859E8520E0E3
:100BB00030E040E251E40E94F431DC01CB01BC01A1
:100BC000CD010E94B91FDC01CB019E838D830FC034
:100BD00084E191E09C838B838B819C810197F1F769
:100BE0009C838B838D819E8101979E838D838D81D4
:100BF0009E81009769F714C06F81788589859A85F1
:100C00000E94B91FDC01CB019E838D838D819E8163
:100C10009A83898389819A810197F1F79A838983DD
:100C200088E20E944C0681E00E944C0686E00E9409
:100C30004C068EE00E944C0680E80E944C062E96E0
:100C40000FB6F894DEBF0FBECDBFCF91DF910895F0
:100C5000DF93CF93CDB7DEB769970FB6F894DEBFB9
:100C60000FBECDBF20E032E0CE010196B90144E1D4
:100C700050E00E946D38CE0101960E940A0981E081
:100C800061E00E94270969960FB6F894DEBF0FBE97
:100C9000CDBFCF91DF910895DF93CF93CDB7DEB76E
:100CA0006E970FB6F894DEBF0FBECDBF8E8F8E8DC0
:100CB0008D8F8D8D807F8D8FA8E2B0E0E8E2F0E02F
:100CC00080818F708C93A8E2B0E0E8E2F0E0908140
:100CD0008D8D892B8C93A8E2B0E0E8E2F0E0808172
:100CE0008E7F8C93A8E2B0E0E8E2F0E080818D7F17
:100CF0008C93A8E2B0E0E8E2F0E0808184608C931D
:100D000080E090E0A0EAB0E4898F9A8FAB8FBC8F2F
:100D1000698D7A8D8B8D9C8D2DEC3CEC4CE255E4ED
:100D20000E94F431DC01CB018D8B9E8BAF8BB88F91
:100D30006D897E898F89988D20E030E040E85FE3FF
:100D40000E94FA3388232CF481E090E09C8B8B8BFB
:100D50003FC06D897E898F89988D20E03FEF4FE7F6
:100D600057E40E949A3318164CF5698D7A8D8B8D55
:100D70009C8D20E030E040E251E40E94F431DC013F
:100D8000CB01BC01CD010E94B91FDC01CB019C8BC2
:100D90008B8B0FC084E191E09A8B898B89899A892A
:100DA0000197F1F79A8B898B8B899C8901979C8B92
:100DB0008B8B8B899C89009769F714C06D897E891C
:100DC0008F89988D0E94B91FDC01CB019C8B8B8B86
:100DD0008B899C89988B8F878F8598890197F1F7EC
:100DE000988B8F87A8E2B0E0E8E2F0E080818B7F0B
:100DF0008C938E8D8F708E8F8E8D8295807F8E8F4F
:100E0000A8E2B0E0E8E2F0E080818F708C93A8E285
:100E1000B0E0E8E2F0E090818E8D892B8C93A8E21F
:100E2000B0E0E8E2F0E080818E7F8C93A8E2B0E051
:100E3000E8E2F0E080818D7F8C93A8E2B0E0E8E208
:100E4000F0E0808184608C9380E090E0A0EAB0E4E0
:100E50008B879C87AD87BE876B857C858D859E85BE
:100E60002DEC3CEC4CE255E40E94F431DC01CB016A
:100E70008F839887A987BA876F81788589859A85B6
:100E800020E030E040E85FE30E94FA3388232CF44E
:100E900081E090E09E838D833FC06F817885898556
:100EA0009A8520E03FEF4FE757E40E949A331816E7
:100EB0004CF56B857C858D859E8520E030E040E299
:100EC00051E40E94F431DC01CB01BC01CD010E9450
:100ED000B91FDC01CB019E838D830FC084E191E0BB
:100EE0009C838B838B819C810197F1F79C838B83FF
:100EF0008D819E8101979E838D838D819E81009738
:100F000069F714C06F81788589859A850E94B91F19
:100F1000DC01CB019E838D838D819E819A838983A1
:100F200089819A810197F1F79A838983A8E2B0E0D9
:100F3000E8E2F0E080818B7F8C936E960FB6F89498
:100F4000DEBF0FBECDBFCF91DF910895DF93CF936A
:100F5000CDB7DEB76E970FB6F894DEBF0FBECDBF2C
:100F60008E8F8E8D8D8F8D8D807F8D8FA8E2B0E0DE
:100F7000E8E2F0E080818F708C93A8E2B0E0E8E2D4
:100F8000F0E090818D8D892B8C93A8E2B0E0E8E2AF
:100F9000F0E0808181608C93A8E2B0E0E8E2F0E0CC
:100FA00080818D7F8C93A8E2B0E0E8E2F0E0808160
:100FB00084608C9380E090E0A0EAB0E4898F9A8FFF
:100FC000AB8FBC8F698D7A8D8B8D9C8D2DEC3CEC1D
:100FD0004CE255E40E94F431DC01CB018D8B9E8BF9
:100FE000AF8BB88F6D897E898F89988D20E030E036
:100FF00040E85FE30E94FA3388232CF481E090E01C
:101000009C8B8B8B3FC06D897E898F89988D20E06A
:101010003FEF4FE757E40E949A3318164CF5698D5D
:101020007A8D8B8D9C8D20E030E040E251E40E946F
:10103000F431DC01CB01BC01CD010E94B91FDC0100
:10104000CB019C8B8B8B0FC084E191E09A8B898BB9
:1010500089899A890197F1F79A8B898B8B899C8969
:1010600001979C8B8B8B8B899C89009769F714C0A7
:101070006D897E898F89988D0E94B91FDC01CB0113
:101080009C8B8B8B8B899C89988B8F878F8598897C
:101090000197F1F7988B8F87A8E2B0E0E8E2F0E0E3
:1010A00080818B7F8C938E8D8F708E8F8E8D8295AD
:1010B000807F8E8FA8E2B0E0E8E2F0E080818F7060
:1010C0008C93A8E2B0E0E8E2F0E090818E8D892B6D
:1010D0008C93A8E2B0E0E8E2F0E0808181608C933C
:1010E000A8E2B0E0E8E2F0E080818D7F8C93A8E296
:1010F000B0E0E8E2F0E0808184608C9380E090E0F2
:10110000A0EAB0E48B879C87AD87BE876B857C8522
:101110008D859E852DEC3CEC4CE255E40E94F4312B
:10112000DC01CB018F839887A987BA876F81788587
:1011300089859A8520E030E040E85FE30E94FA3339
:1011400088232CF481E090E09E838D833FC06F81E3
:10115000788589859A8520E03FEF4FE757E40E9424
:101160009A3318164CF56B857C858D859E8520E01D
:1011700030E040E251E40E94F431DC01CB01BC01DB
:10118000CD010E94B91FDC01CB019E838D830FC06E
:1011900084E191E09C838B838B819C810197F1F7A3
:1011A0009C838B838D819E8101979E838D838D810E
:1011B0009E81009769F714C06F81788589859A852B
:1011C0000E94B91FDC01CB019E838D838D819E819E
:1011D0009A83898389819A810197F1F79A83898318
:1011E000A8E2B0E0E8E2F0E080818B7F8C936E961D
:1011F0000FB6F894DEBF0FBECDBFCF91DF9108953B
:10120000DF93CF93CDB7DEB780E80E944C06CF9135
:10121000DF910895DF93CF930F920F92CDB7DEB792
:101220009A8389830AC0E981FA8180810E94A60796
:1012300089819A8101969A838983E981FA818081E3
:10124000882389F70F900F90CF91DF910895DF9356
:10125000CF9300D00F92CDB7DEB789836A8389819F
:10126000282F30E03C832B838B819C818230910539
:10127000D9F02B813C812330310534F48B819C8162
:101280008130910561F01EC02B813C8123303105F6
:1012900081F08B819C818430910581F013C08A811B
:1012A00081580E944C060EC08A8181540E944C06CF
:1012B00009C08A818D560E944C0604C08A818D52D5
:1012C0000E944C060F900F900F900F90CF91DF91DE
:1012D0000895DF93CF93CDB7DEB727970FB6F89475
:1012E000DEBF0FBECDBF8A836B835D834C833F839C
:1012F0002E8319828A81882319F08B81882319F41F
:101300000E94000904C08A816B810E9427098E8196
:101310009F818530910519F089818130A9F48C81F4
:101320009D8120E137E2B9010E94C838CB01C09607
:1013300090930B0580930A0580910A0590910B0507
:101340000E94A60781E089838E819F818430910568
:1013500019F08981813011F58C819D8128EE33E06F
:10136000B9010E94C838CB019093120580931105F2
:1013700080911105909112052AE030E0B9010E9498
:10138000C838C096909396058093950580919505F1
:10139000909196050E94A60781E089838E819F81A6
:1013A0008330910519F08981813011F58C819D81FF
:1013B00024E630E0B9010E94C838CB0190931205B1
:1013C0008093110580911105909112052AE030E07B
:1013D000B9010E94C838C0969093900580938F05FC
:1013E00080918F05909190050E94A60781E08983E6
:1013F0008E819F818230910519F08981813011F5AC
:101400008C819D812AE030E0B9010E94C838CB016F
:10141000909312058093110580911105909112050A
:101420002AE030E0B9010E94C838C0969093850543
:101430008093840580918405909185050E94A6077C
:1014400081E089838E819F818130910519F08981A6
:10145000813091F48C819D812AE030E0B9010E94B5
:10146000C838C09690939405809393058091930516
:10147000909194050E94A6078E819F8186309105E8
:101480001CF085E40E94A60727960FB6F894DEBFED
:101490000FBECDBFCF91DF910895DF93CF93CDB72E
:1014A000DEB7A7E2B0E0E7E2F0E08081876F8C93DF
:1014B000A8E2B0E0E8E2F0E0808180788C93CF9100
:1014C000DF910895DF93CF93CDB7DEB7E0E3F0E08F
:1014D0001082E1E3F0E01082E7E0F1E01082E8E062
:1014E000F1E01082CF91DF910895DF93CF93CDB7D4
:1014F000DEB7A1E2B0E0E1E2F0E080818F608C93A2
:10150000A2E2B0E0E2E2F0E08081807F8C93AAE08A
:10151000B1E0EAE0F1E0808188618C93ABE0B1E07A
:10152000EBE0F1E0808188618C93CF91DF910895A9
:10153000DF93CF93CDB7DEB7A7E2B0E0E7E2F0E00C
:10154000808188608C93A8E2B0E0E8E2F0E08081DE
:10155000877F8C93CF91DF910895DF93CF93CDB7A1
:10156000DEB70E944D0A0E94620A0E94750A0E941C
:101570001E0C0E94330C0E94980ACF91DF910895AF
:10158000DF93CF93CDB7DEB7E1E2F1E01082E5E281
:10159000F1E08FEF8083E4E2F1E081E08083E9E233
:1015A000F1E01082E8E2F1E08FEF8083EBE2F1E01E
:1015B0001082EAE2F1E08FEF8083EDE2F1E0108249
:1015C000ECE2F1E08FEF8083E0E2F1E089EA8083F2
:1015D000E1E2F1E08BE08083CF91DF910895DF932A
:1015E000CF930F92CDB7DEB71982E6E2F0E08081AB
:1015F0008983898188608983E8E2F0E0898180833A
:101600000F90CF91DF910895DF93CF930F92CDB7D5
:10161000DEB71982E6E2F0E0808189838981877FE5
:101620008983E8E2F0E0898180830F90CF91DF9198
:101630000895DF93CF93CDB7DEB7EAE7F0E01082ED
:10164000EBE7F0E01082ECE7F0E080E28083E0E599
:10165000F0E080E88083EAE7F0E086E88083CF91DD
:10166000DF910895DF93CF930F920F92CDB7DEB73E
:101670008A838A81883020F0EBE7F0E088E080837D
:101680008A8187708A83ECE7F0E08A8180628083B8
:10169000AAE7B0E0EAE7F0E0808180648C93EAE7B3
:1016A000F0E08081882F90E0807190700097B9F30E
:1016B000E9E7F0E080818983AAE7B0E0EAE7F0E0BB
:1016C000808180618C93EBE7F0E0108289810F903C
:1016D0000F90CF91DF910895DF93CF9300D0CDB7D6
:1016E000DEB789836A834B838B810E94320B8093A0
:1016F000130580911305282F30E089816A81A901A3
:1017000023E030E00E9469090F900F900F90CF9175
:10171000DF910895DF93CF930F920F92CDB7DEB78D
:1017200089836A83E8E2F1E089818083EAE2F1E07B
:101730008A8180838981809309058A8180930C0541
:101740000F900F90CF91DF910895DF93CF930F9279
:101750000F92CDB7DEB78A8319828A818F708A8310
:10176000E2E2F0E0808189838981807F89839981A9
:101770008A81892B8983E2E2F0E0898180830F905E
:101780000F90CF91DF910895DF93CF93CDB7DEB760
:1017900086E00E94A50BCF91DF910895DF93CF9350
:1017A000CDB7DEB789E00E94A50BCF91DF910895F8
:1017B000DF93CF93CDB7DEB785E00E94A50BCF9125
:1017C000DF910895DF93CF93CDB7DEB78AE00E9413
:1017D000A50BCF91DF910895DF93CF93CDB7DEB7FF
:1017E00084E00E94A50BCF91DF910895DF93CF9302
:1017F000CDB7DEB782E00E94A50BCF91DF910895AF
:10180000DF93CF93CDB7DEB781E00E94A50BCF91D8
:10181000DF910895DF93CF93CDB7DEB788E00E94C4
:10182000A50BCF91DF910895DF93CF93CDB7DEB7AE
:1018300080E00E94A50BCF91DF910895DF93CF93B5
:10184000CDB7DEB7ADE2B0E0EDE2F0E080818F7EB3
:101850008C93AEE2B0E0EEE2F0E0808180618C93A8
:10186000CF91DF910895DF93CF93CDB7DEB7ADE28F
:10187000B0E0EDE2F0E080818F7D8C93AEE2B0E0ED
:10188000EEE2F0E0808180628C93CF91DF91089549
:10189000DF93CF93CDB7DEB7F894AAE6B0E0EAE6DF
:1018A000F0E0808182608C93ADE3B0E0EDE3F0E0A6
:1018B000808180618C937894CF91DF910895DF933C
:1018C000CF93CDB7DEB7F894AAE6B0E0EAE6F0E051
:1018D000808188608C93ADE3B0E0EDE3F0E080813F
:1018E00080628C937894CF91DF910895DF93CF93AA
:1018F000CDB7DEB7F894A9E6B0E0E9E6F0E0808184
:1019000088608C93ADE3B0E0EDE3F0E0808182602D
:101910008C937894CF91DF9108951F920F920FB618
:101920000F9211242F933F934F935F936F937F9365
:101930008F939F93DF93CF93CDB7DEB7AB97DEBF87
:10194000CDBF80918605909187050196909387057C
:10195000809386058091EB0489839091EC049A83AF
:101960008091ED048B839091EE049C838091EF0431
:101970008D839091F0049E838091F1048F839091E8
:10198000F204988781E089871A861B861C861D864B
:101990001E861F86188A99818985980F998B91E0F8
:1019A000998F89899981891708F0198E8A819A857A
:1019B000890F8A8B81E08A8F9A898A81981708F02B
:1019C0001A8E998D8A89980F9B8F91E09C8F8B8DB1
:1019D0009A89891708F01C8E8A8D9C8D892B8A8F95
:1019E0008B8D8A8B9B818B85980F9B8B91E09D8F34
:1019F0008B899B81891708F01D8E8A8D9B89890FA1
:101A00008E8F81E08F8F9E8D8B89981708F01F8EA7
:101A10009D8D8F8D982B9D8F9E8D9B8B8C819C8512
:101A2000890F8C8B81E088A39C898C81981708F0A2
:101A300018A29D8D8C89980F99A391E09AA389A1F2
:101A40009C89891708F01AA288A19AA1892B88A3DA
:101A500089A18C8B9D818D85980F9D8B91E09BA397
:101A60008D899D81891708F01BA288A19D89890F06
:101A70008CA381E08DA39CA18D89981708F01DA2ED
:101A80009BA18DA1982B9BA39CA19D8B8E819E8554
:101A9000890F8E8B81E08EA39E898E81981708F026
:101AA0001EA29BA18E89980F9FA391E098A78FA15A
:101AB0009E89891708F018A68EA198A5892B8EA358
:101AC0008FA18E8B9F818F85980F9F8B91E099A717
:101AD0008F899F81891708F019A68EA19F89890F88
:101AE0008AA781E08BA79AA58F89981708F01BA673
:101AF00099A58BA5982B99A79AA59F8B88859889DE
:101B0000890F888F89A5988D890F888F29893A89AF
:101B10004B895C896D897E898F89988D2093EB0430
:101B20003093EC044093ED045093EE046093EF0483
:101B30007093F0048093F1049093F204AB96DEBFAF
:101B4000CDBFCF91DF919F918F917F916F915F91E9
:101B50004F913F912F910F900FBE0F901F901895AE
:101B60001F920F920FB60F9211242F933F934F9312
:101B70005F936F937F938F939F93DF93CF93CDB7B3
:101B8000DEB7AB97DEBFCDBF8091DF049091E0045C
:101B900001969093E0048093DF048091FB04898395
:101BA0009091FC049A838091FD048B839091FE04B4
:101BB0009C838091FF048D83909100059E8380918A
:101BC00001058F8390910205988781E089871A86A5
:101BD0001B861C861D861E861F86188A998189850C
:101BE000980F998B91E0998F89899981891708F0CD
:101BF000198E8A819A85890F8A8B81E08A8F9A89CA
:101C00008A81981708F01A8E998D8A89980F9B8F70
:101C100091E09C8F8B8D9A89891708F01C8E8A8D94
:101C20009C8D892B8A8F8B8D8A8B9B818B85980FBE
:101C30009B8B91E09D8F8B899B81891708F01D8E6E
:101C40008A8D9B89890F8E8F81E08F8F9E8D8B89E6
:101C5000981708F01F8E9D8D8F8D982B9D8F9E8DD0
:101C60009B8B8C819C85890F8C8B81E088A39C89C0
:101C70008C81981708F018A29D8D8C89980F99A3D4
:101C800091E09AA389A19C89891708F01AA288A1DA
:101C90009AA1892B88A389A18C8B9D818D85980F12
:101CA0009D8B91E09BA38D899D81891708F01BA2D4
:101CB00088A19D89890F8CA381E08DA39CA18D892A
:101CC000981708F01DA29BA18DA1982B9BA39CA106
:101CD0009D8B8E819E85890F8E8B81E08EA39E8940
:101CE0008E81981708F01EA29BA18E89980F9FA342
:101CF00091E098A78FA19E89891708F018A68EA158
:101D000098A5892B8EA38FA18E8B9F818F85980F8D
:101D10009F8B91E099A78F899F81891708F019A659
:101D20008EA19F89890F8AA781E08BA79AA58F89A9
:101D3000981708F01BA699A58BA5982B99A79AA58B
:101D40009F8B88859889890F888F89A5988D890FA1
:101D5000888F29893A894B895C896D897E898F8929
:101D6000988D2093FB043093FC044093FD04509322
:101D7000FE046093FF047093000580930105909327
:101D80000205AB96DEBFCDBFCF91DF919F918F91C2
:101D90007F916F915F914F913F912F910F900FBE67
:101DA0000F901F901895DF93CF93CDB7DEB7E1EC7E
:101DB000F0E01082E0ECF0E01082E2ECF0E086E08F
:101DC0008083E4ECF0E087E48083E5ECF0E01082CF
:101DD000E1ECF0E088E98083CF91DF9108951F92D4
:101DE0000F920FB60F9200905B000F9211242F9369
:101DF0003F934F935F936F937F938F939F93AF9393
:101E0000BF93EF93FF93DF93CF930F920F92CDB7D2
:101E1000DEB7E6ECF0E0808180938A0583E090E015
:101E20000E944A379A838983E981FA81128211825A
:101E300080918A05E981FA81808381E090E0909326
:101E4000E6048093E5048091E3049091E404009714
:101E500039F489819A819093E4048093E3040EC05D
:101E6000E091E304F091E40489819A819283818373
:101E700089819A819093E4048093E3048091E10442
:101E80009091E204009741F48091E3049091E4047E
:101E90009093E2048093E1040F900F90CF91DF9133
:101EA000FF91EF91BF91AF919F918F917F916F9132
:101EB0005F914F913F912F910F9000925B000F9097
:101EC0000FBE0F901F9018950F931F93DF93CF9322
:101ED000CDB7DEB7C254D0400FB6F894DEBF0FBE08
:101EE000CDBFFE01EF5BFF4F9183808381E061E016
:101EF0000E942709E6ECF0E083E2808380E090E036
:101F0000A0E8BFE38FA398A7A9A7BAA76FA178A558
:101F100089A59AA52DEC3CEC4CE255E40E94F431E5
:101F2000DC01CB018BA39CA3ADA3BEA36BA17CA1C1
:101F30008DA19EA120E030E040E85FE30E94FA33EB
:101F400088232CF481E090E09AA389A33FC06BA181
:101F50007CA18DA19EA120E03FEF4FE757E40E94B6
:101F60009A3318164CF56FA178A589A59AA520E09B
:101F700030E040E251E40E94F431DC01CB01BC01CD
:101F8000CD010E94B91FDC01CB019AA389A30FC028
:101F900084E191E098A38F8F8F8D98A10197F1F73D
:101FA00098A38F8F89A19AA101979AA389A389A148
:101FB0009AA1009769F714C06BA17CA18DA19EA185
:101FC0000E94B91FDC01CB019AA389A389A19AA120
:101FD0009E8F8D8F8D8D9E8D0197F1F79E8F8D8FAA
:101FE0001CA61BA685C0A6ECB0E02BA53CA5FE0157
:101FF000EF5BFF4F80819181FC01E20FF31F808135
:102000008C9380E090E0A0E8BFE3898F9A8FAB8F3C
:10201000BC8F698D7A8D8B8D9C8D2DEC3CEC4CE2C8
:1020200055E40E94F431DC01CB018D8B9E8BAF8B8C
:10203000B88F6D897E898F89988D20E030E040E8E7
:102040005FE30E94FA3388232CF481E090E09C8BBC
:102050008B8B3FC06D897E898F89988D20E03FEF03
:102060004FE757E40E949A3318164CF5698D7A8D24
:102070008B8D9C8D20E030E040E251E40E94F431F1
:10208000DC01CB01BC01CD010E94B91FDC01CB01F9
:102090009C8B8B8B0FC084E191E09A8B898B898913
:1020A0009A890197F1F79A8B898B8B899C89019783
:1020B0009C8B8B8B8B899C89009769F714C06D89E9
:1020C0007E898F89988D0E94B91FDC01CB019C8B82
:1020D0008B8B8B899C89988B8F878F8598890197AB
:1020E000F1F7988B8F878BA59CA501969CA78BA752
:1020F0000BA51CA5FE01EF5BFF4F808191810E9423
:1021000086380817190708F46ECFE6ECF0E083E292
:10211000808380E090E0A0E8BFE38B879C87AD8759
:10212000BE876B857C858D859E852DEC3CEC4CE2D5
:1021300055E40E94F431DC01CB018F839887A98795
:10214000BA876F81788589859A8520E030E040E8FC
:102150005FE30E94FA3388232CF481E090E09E83B1
:102160008D833FC06F81788589859A8520E03FEF18
:102170004FE757E40E949A3318164CF56B857C851F
:102180008D859E8520E030E040E251E40E94F431EC
:10219000DC01CB01BC01CD010E94B91FDC01CB01E8
:1021A0009E838D830FC084E191E09C838B838B8120
:1021B0009C810197F1F79C838B838D819E81019790
:1021C0009E838D838D819E81009769F714C06F81F6
:1021D000788589859A850E94B91FDC01CB019E8391
:1021E0008D838D819E819A83898389819A810197CC
:1021F000F1F79A838983CE5BDF4F0FB6F894DEBF89
:102200000FBECDBFCF91DF911F910F9108950F9316
:102210001F93DF93CF93CDB7DEB7CC53D1400FB62A
:10222000F894DEBF0FBECDBFFE01E55CFE4F91838B
:10223000808384E192E0FE01E55CFE4F20813181E4
:10224000B9010E947638009729F4E2E2F0E086E0D6
:1022500080839AC586E192E0FE01E55CFE4F208115
:102260003181B9010E947638009729F4E2E2F0E06A
:1022700089E0808389C588E192E0FE01E55CFE4F3C
:1022800020813181B9010E947638009729F4E2E279
:10229000F0E085E0808378C58AE192E0FE01E55CAC
:1022A000FE4F20813181B9010E947638009729F4D0
:1022B000E2E2F0E08AE0808367C58CE192E0FE0113
:1022C000E55CFE4F20813181B9010E94763800978C
:1022D00021F4E2E2F0E0108257C58EE192E0FE01C7
:1022E000E55CFE4F20813181B9010E94763800976C
:1022F00019F40E94EF0A48C580E292E0FE01E55C15
:10230000FE4F20813181B9010E947638009719F47F
:102310000E94040B39C582E292E0FE01E55CFE4FAB
:1023200020813181B9010E947638009799F4CE015D
:102330008B559F4F62E370E00E94D01681E061E010
:102340000E9427090E942806CE018B559F4F0E94AC
:102350000A091AC586E292E0FE01E55CFE4F208183
:102360003181B9010E947638009709F0C7C1CE01CA
:102370008B559F4F62E370E00E94D016CE018952C8
:102380009F4F62E370E00E94D016CE018B559F4FA5
:102390002EE232E0B9010E947638009751F402E251
:1023A00010E0CE0189529F4F0E944F38F801808380
:1023B000EBC4CE018B559F4F24E332E0B9010E945C
:1023C0007638009751F405E210E0CE0189529F4F14
:1023D0000E944F38F8018083D7C4CE018B559F4FA0
:1023E0002AE332E0B9010E947638009751F408E2FE
:1023F00010E0CE0189529F4F0E944F38F801808330
:10240000C3C4CE018B559F4F20E432E0B9010E9436
:102410007638009751F40BE210E0CE0189529F4FBD
:102420000E944F38F8018083AFC4CE018B559F4F77
:1024300026E432E0B9010E947638009751F40EE2AA
:1024400010E0CE0189529F4F0E944F38F8018083DF
:102450009BC4CE018B559F4F2CE432E0B9010E9402
:102460007638009751F401E310E0CE0189529F4F76
:102470000E944F38F801808387C4CE018B559F4F4F
:1024800022E532E0B9010E947638009751F404E366
:1024900010E0CE0189529F4F0E944F38F80180838F
:1024A00073C4CE018B559F4F28E532E0B9010E94DD
:1024B0007638009751F402E011E0CE0189529F4F27
:1024C0000E944F38F80180835FC4CE018B559F4F27
:1024D0002EE532E0B9010E947638009751F405E00C
:1024E00011E0CE0189529F4F0E944F38F80180833E
:1024F0004BC4CE018B559F4F24E632E0B9010E94B8
:102500007638009751F408E011E0CE0189529F4FD0
:102510000E944F38F801808337C4CE018B559F4FFE
:102520002AE632E0B9010E947638009751F40BE0B8
:1025300011E0CE0189529F4F0E944F38F8018083ED
:1025400023C4CE018B559F4F20E732E0B9010E9492
:102550007638009751F401E210E0CE0189529F4F86
:102560000E944F38F80180830FC4CE018B559F4FD6
:1025700025E732E0B9010E947638009751F404E271
:1025800010E0CE0189529F4F0E944F38F80180839E
:10259000FBC3CE018B559F4F2AE732E0B9010E9461
:1025A0007638009751F407E210E0CE0189529F4F30
:1025B0000E944F38F8018083E7C3CE018B559F4FAF
:1025C0002FE732E0B9010E947638009751F40AE211
:1025D00010E0CE0189529F4F0E944F38F80180834E
:1025E000D3C3CE018B559F4F24E832E0B9010E943E
:1025F0007638009751F40DE210E0CE0189529F4FDA
:102600000E944F38F8018083BFC3CE018B559F4F86
:1026100029E832E0B9010E947638009751F400E3CE
:1026200010E0CE0189529F4F0E944F38F8018083FD
:10263000ABC3CE018B559F4F2EE832E0B9010E940B
:102640007638009751F403E310E0CE0189529F4F92
:102650000E944F38F801808397C3CE018B559F4F5E
:1026600023E932E0B9010E947638009751F403E380
:1026700010E0CE0189529F4F0E944F38F8018083AD
:1026800083C3CE018B559F4F28E932E0B9010E94E8
:102690007638009751F404E011E0CE0189529F4F43
:1026A0000E944F38F80180836FC3CE018B559F4F36
:1026B0002DE932E0B9010E947638009751F407E025
:1026C00011E0CE0189529F4F0E944F38F80180835C
:1026D0005BC3CE018B559F4F22EA32E0B9010E94C5
:1026E0007638009709F050C30AE011E0CE01895214
:1026F0009F4F0E944F38F801808346C387EA92E0DB
:10270000FE01E55CFE4F20813181B9010E947638DF
:10271000009709F007C1CE0143966AE070E00E947D
:10272000D016CE0143962EEA32E0B9010E947638E7
:10273000009771F4E0E2F0E08081882F90E09E0144
:10274000235E3F4FB9014AE050E00E948F38E5C058
:10275000CE01439623EB32E0B9010E947638009710
:1027600071F4E3E2F0E08081882F90E09E01235E27
:102770003F4FB9014AE050E00E948F38CEC0CE01F1
:10278000439628EB32E0B9010E947638009771F445
:10279000E6E2F0E08081882F90E09E01235E3F4FCB
:1027A000B9014AE050E00E948F38B7C0CE0143968D
:1027B0002DEB32E0B9010E947638009771F4E9E21E
:1027C000F0E08081882F90E09E01235E3F4FB901A9
:1027D0004AE050E00E948F38A0C0CE01439622EC20
:1027E00032E0B9010E947638009771F4ECE2F0E033
:1027F0008081882F90E09E01235E3F4FB9014AE01F
:1028000050E00E948F3889C0CE01439627EC32E019
:10281000B9010E947638009771F4EFE2F0E0808110
:10282000882F90E09E01235E3F4FB9014AE050E0BF
:102830000E948F3872C0CE0143962CEC32E0B90171
:102840000E947638009771F4E2E3F0E08081882FEF
:1028500090E09E01235E3F4FB9014AE050E00E94A4
:102860008F385BC0CE01439621ED32E0B9010E9462
:102870007638009771F4E0E0F1E08081882F90E0F5
:102880009E01235E3F4FB9014AE050E00E948F381D
:1028900044C0CE01439626ED32E0B9010E9476385D
:1028A000009771F4E3E0F1E08081882F90E09E01D1
:1028B000235E3F4FB9014AE050E00E948F382DC09F
:1028C000CE0143962BED32E0B9010E947638009795
:1028D00071F4E6E0F1E08081882F90E09E01235EB4
:1028E0003F4FB9014AE050E00E948F3816C0CE0138
:1028F000439620EE32E0B9010E947638009769F4E1
:10290000E9E0F1E08081882F90E09E01235E3F4F57
:10291000B9014AE050E00E948F38CE014D960E94E6
:10292000640F32C285EE92E0FE01E55CFE4F20812D
:102930003181B9010E947638009769F4CE0189523D
:102940009F4F64E670E00E94D016CE0189529F4FDF
:102950000E94E91819C28DEE92E0FE01E55CFE4F7F
:1029600020813181B9010E947638009719F40E94C4
:102970001D180AC28BEF92E0FE01E55CFE4F20813C
:102980003181B9010E947638009719F40E948318AA
:10299000FBC186E093E0FE01E55CFE4F20813181C2
:1029A000B9010E947638009701F5CE01879664E15F
:1029B00070E00E94D016CE01CB9663E070E00E94DA
:1029C000D016CE0187960E944F389A8B898BCE0104
:1029D000CB960E944F38988B8F8789899A892F854B
:1029E0003889B9010E942019CFC180E193E0FE012E
:1029F000E55CFE4F20813181B9010E947638009755
:102A0000B1F483E00E94320B882F90E09E878D877F
:102A10008D859E859E01225C3F4FB9014AE050E0C2
:102A20000E948F38CE01CE960E94640FADC18BE11B
:102A300093E0FE01E55CFE4F20813181B9010E94E7
:102A400076380097B9F482E00E94320B882F90E02C
:102A50009C878B878B859C859E01285B3F4FB901A6
:102A60004AE050E00E948F38CE01885B9F4F0E9461
:102A7000640F8AC188E293E0FE01E55CFE4F20818D
:102A80003181B9010E9476380097B9F481E00E9443
:102A9000320B882F90E09A87898789859A859E01D5
:102AA0002E5A3F4FB9014AE050E00E948F38CE01C4
:102AB0008E5A9F4F0E94640F67C184E393E0FE012A
:102AC000E55CFE4F20813181B9010E947638009784
:102AD000A9F5CE01845A9F4F64E070E00E94D016A1
:102AE000CE01845A9F4F0E944F3898878F838F81E1
:102AF0009885863091052CF48F81988518161906D3
:102B00002CF08EE393E00E940A093EC18F818D5F15
:102B10000E94320B882F90E09E838D838D819E8151
:102B20009E01205A3F4FB9014AE050E00E948F3881
:102B3000CE01805A9F4F0E94640F26C18FE493E01C
:102B4000FE01E55CFE4F20813181B9010E9476389B
:102B50000097A9F5CE0186599F4F64E070E00E946E
:102B6000D016CE0186599F4F0E944F389C838B838D
:102B70008B819C81863091052CF48B819C81181669
:102B800019062CF08EE393E00E940A09FDC08B81A8
:102B9000885F0E94320B882F90E09A838983898115
:102BA0009A819E0122593F4FB9014AE050E00E94AC
:102BB0008F38CE0182599F4F0E94640FE5C08AE58D
:102BC00093E0FE01E55CFE4F20813181B9010E9456
:102BD0007638009749F5CE0188589F4F6AE070E03B
:102BE0000E94D016CE018E579F4F6AE070E00E947F
:102BF000D016CE0188589F4F0E944F382FEF30E0FB
:102C0000B9010E94DC38182FCE018E579F4F0E94C9
:102C10004F382FEF30E0B9010E94DC38982F812F18
:102C2000692F0E948A0BB0C086E693E0FE01E55C46
:102C3000FE4F20813181B9010E947638009709F05A
:102C400064C0CE0184579F4F6AE070E00E94D016A6
:102C5000CE0184579F4F29E733E0B9010E947638AF
:102C6000009709F58091DF049091E0040097B1F09E
:102C70008091DF049091E0049E012A563F4FB901F4
:102C800045E050E00E948F381092E0041092DF047B
:102C9000CE018A569F4F0E94640F76C08EE793E064
:102CA0000E94640F71C0CE0184579F4F20E833E02B
:102CB000B9010E947638009709F5809186059091B8
:102CC00087050097B1F080918605909187059E0158
:102CD0002A563F4FB90145E050E00E948F381092CC
:102CE000870510928605CE018A569F4F0E94640F79
:102CF0004BC08EE793E00E94640F46C00E942806F6
:102D000086E893E00E940A093FC086E993E0FE014D
:102D1000E55CFE4F20813181B9010E947638009731
:102D200061F5CE0185569F4F6AE070E00E94D01693
:102D3000CE0185569F4F29E733E0B9010E947638CE
:102D4000009729F41092E0041092DF041DC0CE0118
:102D500085569F4F20E833E0B9010E9476380097EE
:102D600029F410928705109286050EC00E9428064D
:102D700086E893E00E940A0907C0FE01E55CFE4F69
:102D8000808191810E940A09C45CDE4F0FB6F894DD
:102D9000DEBF0FBECDBFCF91DF911F910F91089580
:102DA000DF93CF93CDB7DEB72A970FB6F894DEBF87
:102DB0000FBECDBF98878F837A8769878091E104A2
:102DC0009091E2049C838B831E821D826EC08B8156
:102DD0009C81009739F08091E5049091E604813060
:102DE000910579F48FEF9FEF9E838D831092E60417
:102DF0001092E5048091E1049091E2049C838B831E
:102E00004FC0EB81FC8180818332C9F52D813E81E9
:102E10008F819885FC01E20FF31F10828091E104FD
:102E20009091E2049C838B830EC08B819C819A835A
:102E30008983EB81FC81818192819C838B83898151
:102E40009A810E94F737EB81FC818081833269F798
:102E5000EB81FC81818192819093E2048093E10473
:102E60008091E1049091E204009721F41092E4042F
:102E70001092E3048B819C810E94F7371EC02D8144
:102E80003E818F819885DC01A20FB31FEB81FC810D
:102E900080818C93EB81FC81818192819C838B83E7
:102EA0008D819E8101969E838D832D813E818985B2
:102EB0009A85281739070CF48ACF2A960FB6F8940A
:102EC000DEBF0FBECDBFCF91DF910895DF93CF93CB
:102ED000CDB7DEB72D970FB6F894DEBF0FBECDBFCE
:102EE0009D878C878C859D859E012E5F3F4FB90104
:102EF0004AE050E00E948F38CE0102960E940A09F3
:102F00008CE192E0898389810E94A6072D960FB6F5
:102F1000F894DEBF0FBECDBFCF91DF910895EF9241
:102F2000FF920F931F93DF93CF93CDB7DEB72C970C
:102F30000FB6F894DEBF0FBECDBF6F837887898749
:102F40009A875C874B878FE090E09E838D838D818D
:102F50009E81AA2797FDA095BA2FBC01CD010E94A2
:102F60002A34DC01CB01BC01CD0120E030E040E09F
:102F700050E40E94EE32DC01CB01BC01CD012F8177
:102F8000388549855A850E94C731DC01CB017C0117
:102F90008D018D819E81AA2797FDA095BA2FBC0136
:102FA000CD010E942A34DC01CB01BC01CD0120E01F
:102FB00030E040E050EC0E94EE32DC01CB01BC017D
:102FC000CD012F81388549855A850E94C731DC01A2
:102FD000CB019C01AD01C801B7010E94EE32DC01BA
:102FE000CB0189839A83AB83BC838B859C8582309C
:102FF000910581F460E070E080E89FE329813A81E7
:103000004B815C810E94EE32DC01CB0189839A8383
:10301000AB83BC8389819A81AB81BC81BC01CD012A
:103020002C960FB6F894DEBF0FBECDBFCF91DF91C7
:103030001F910F91FF90EF900895DF93CF93CDB73D
:10304000DEB780E090E0A0E8BFE3809303059093B3
:103050000405A0930505B093060581E08093D7048D
:103060001092D8041092D9041092DA041092DB0462
:103070001092DC041092DD041092DE042091EB0427
:103080003091EC044091ED045091EE046091EF0416
:103090007091F0048091F1049091F2042093140552
:1030A0003093150540931605509317056093180546
:1030B0007093190580931A0590931B052091FB04CA
:1030C0003091FC044091FD045091FE046091FF0496
:1030D0007091000580910105909102052093F30401
:1030E0003093F4044093F5045093F6046093F7048E
:1030F0007093F8048093F9049093FA040E94C40B2F
:10310000CF91DF910895DF93CF93CDB7DEB780E005
:1031100090E0A0E8BFE38093030590930405A0939B
:103120000505B093060581E08093D7041092D8047A
:103130001092D9041092DA041092DB041092DC048D
:103140001092DD041092DE042091EB043091EC0427
:103150004091ED045091EE046091EF047091F00401
:103160008091F1049091F204209314053093150599
:103170004093160550931705609318057093190531
:1031800080931A0590931B052091FB043091FC0459
:103190004091FD045091FE046091FF047091000580
:1031A00080910105909102052093F3043093F4047B
:1031B0004093F5045093F6046093F7047093F80479
:1031C0008093F9049093FA040E94CE0BCF91DF9183
:1031D0000895DF93CF930F920F92CDB7DEB79A8306
:1031E000898380E295E029813A81B9010E947F3884
:1031F00080E295E00E948638805E9A4F25EA33E0AF
:10320000B90140E150E00E946D380E94280681E03B
:1032100061E00E94270980E295E00E940A0981E0AE
:1032200090E0909398058093970581E090E09093CB
:103230000805809307050F900F90CF91DF910895B7
:103240001F93DF93CF93CDB7DEB762970FB6F89495
:10325000DEBF0FBECDBF6D877E878F87988B5A8B61
:10326000498B8D859E85AF85B88929893A89BC01AE
:10327000CD01A9010E948F17DC01CB0189879A87B4
:10328000AB87BC8781E08093D7041092D80410925A
:10329000D9041092DA041092DB041092DC0410922C
:1032A000DD041092DE0489859A85AB85BC85809308
:1032B000030590930405A0930505B093060586E9E0
:1032C0008093090586E980930C0569857A858B854D
:1032D0009C8520E030E040E85FE30E949A331816B6
:1032E0000CF04EC080910C05882F90E0A0E0B0E07B
:1032F000BC01CD010E94DC34DC01CB0189839A83BF
:10330000AB83BC8369817A818B819C8129853A85D5
:103310004B855C850E94F431DC01CB018D839E835B
:10332000AF83B8876D817E818F81988520E030E002
:103330004EE753E40E949A3318160CF06DC080914A
:103340000905882F90E0A0E0B0E0BC01CD010E940B
:10335000DC34DC01CB018D839E83AF83B8876D8124
:103360007E818F81988529853A854B855C850E9471
:10337000EE32DC01CB0189839A83AB83BC834CC0E2
:1033800080910905882F90E0A0E0B0E0BC01CD015C
:103390000E94DC34DC01CB018D839E83AF83B88730
:1033A0006D817E818F81988529853A854B855C85E5
:1033B0000E94EE32DC01CB0189839A83AB83BC830C
:1033C00069817A818B819C8120E030E04EE753E473
:1033D0000E949A33181604F580910C05882F90E00E
:1033E000A0E0B0E0BC01CD010E94DC34DC01CB01E7
:1033F00089839A83AB83BC8369817A818B819C8129
:1034000029853A854B855C850E94F431DC01CB012E
:103410008D839E83AF83B8872091FB043091FC0499
:103420004091FD045091FE046091FF0470910005ED
:1034300080910105909102052093F3043093F404E8
:103440004093F5045093F6046093F7047093F804E6
:103450008093F9049093FA042091EB043091EC04EA
:103460004091ED045091EE046091EF047091F004EE
:103470008091F1049091F204209314053093150586
:10348000409316055093170560931805709319051E
:1034900080931A0590931B056D817E818F8198859D
:1034A0000E94B91FDC01CB01182F69817A818B81C1
:1034B0009C810E94B91FDC01CB01982F812F692FBD
:1034C0000E948A0B0E94C40B62960FB6F894DEBF6E
:1034D0000FBECDBFCF91DF911F9108958F929F9224
:1034E000AF92BF92CF92DF92EF92FF920F931F9312
:1034F000DF93CF93CDB7DEB72C970FB6F894DEBF2E
:103500000FBECDBF9A8789877C876B8729853A85CF
:1035100083E39BE2AC01249FC001259F900D349F63
:10352000900D11249A838983990F880B982F8B8390
:103530008C838D838E838F838887E1E9F0E010820E
:103540000F2EF5E98F2E9924F02DA980BA80CB801B
:10355000DC80ED80FE800F8118852A2D3B2D4C2DBF
:103560005D2D6E2D7F2D802F912FAA24AA94BB2430
:10357000CC24DD24EE24FF2400E010E00E94E51FAF
:10358000A22EB32EC42ED52EE62EF72E082F192FDD
:103590002A2D3B2D4C2D5D2D6E2D7F2D802F912FB3
:1035A000822F8095F40180830F2EF4E98F2E9924C9
:1035B000F02DA980BA80CB80DC80ED80FE800F8169
:1035C00018852A2D3B2D4C2D5D2D6E2D7F2D802FA6
:1035D000912FAA24AA94BB24CC24DD24EE24FF241A
:1035E00000E010E00E940D28A22EB32EC42ED52E8E
:1035F000E62EF72E082F192F2A2D3B2D4C2D5D2D51
:103600006E2D7F2D802F912F822F8095F401808346
:10361000E1E9F0E085E080838B859C8590939205BD
:10362000809391052C960FB6F894DEBF0FBECDBFE8
:10363000CF91DF911F910F91FF90EF90DF90CF908E
:10364000BF90AF909F908F9008951F920F920FB6EA
:103650000F9200905B000F9211242F933F934F9392
:103660005F936F937F938F939F93AF93BF93EF93EA
:10367000FF93DF93CF93CDB7DEB7E0919105F09143
:1036800092051995CF91DF91FF91EF91BF91AF9185
:103690009F918F917F916F915F914F913F912F916A
:1036A0000F9000925B000F900FBE0F901F90189527
:1036B0008F929F92AF92BF92CF92DF92EF92FF9242
:1036C0000F931F93DF93CF93CDB7DEB72C970FB631
:1036D000F894DEBF0FBECDBF9A8789877C876B8742
:1036E00029853A8583E39BE2AC01249FC001259F95
:1036F000900D349F900D11249A838983990F880B24
:10370000982F8B838C838D838E838F838887E1E8CA
:10371000F0E010820F2EF5E88F2E9924F02DA9806D
:10372000BA80CB80DC80ED80FE800F8118852A2D49
:103730003B2D4C2D5D2D6E2D7F2D802F912FAA249A
:10374000AA94BB24CC24DD24EE24FF2400E010E066
:103750000E94E51FA22EB32EC42ED52EE62EF72EE4
:10376000082F192F2A2D3B2D4C2D5D2D6E2D7F2DD1
:10377000802F912F822F8095F40180830F2EF4E803
:103780008F2E9924F02DA980BA80CB80DC80ED802B
:10379000FE800F8118852A2D3B2D4C2D5D2D6E2D21
:1037A0007F2D802F912FAA24AA94BB24CC24DD2422
:1037B000EE24FF2400E010E00E940D28A22EB32E7C
:1037C000C42ED52EE62EF72E082F192F2A2D3B2D8D
:1037D0004C2D5D2D6E2D7F2D802F912F822F80956A
:1037E000F4018083E1E8F0E085E080838B859C85AF
:1037F00090931D0580931C052C960FB6F894DEBFA0
:103800000FBECDBFCF91DF911F910F91FF90EF9031
:10381000DF90CF90BF90AF909F908F9008951F92B0
:103820000F920FB60F9200905B000F9211242F930E
:103830003F934F935F936F937F938F939F93AF9338
:10384000BF93EF93FF93DF93CF93CDB7DEB7E091B4
:103850001C05F0911D051995CF91DF91FF91EF9116
:10386000BF91AF919F918F917F916F915F914F9198
:103870003F912F910F9000925B000F900FBE0F9021
:103880001F9018951F920F920FB60F9200905B0039
:103890000F921124EF92FF920F931F932F933F9358
:1038A0004F935F936F937F938F939F93AF93BF9348
:1038B000EF93FF93DF93CF93CDB7DEB7A497DEBF2F
:1038C000CDBF2091D7043091D8044091D9045091B4
:1038D000DA046091DB047091DC048091DD04909146
:1038E000DE04E22FE32BE42BE52BE62BE72BE82B82
:1038F000E92BEE2309F439C22091EB043091EC045A
:103900004091ED045091EE046091EF047091F00449
:103910008091F1049091F204F90120911405309105
:103920001505409116055091170560911805709185
:10393000190580911A0590911B05C9019F01281B4B
:10394000390BC9019A8F898F2091FB043091FC04B7
:103950004091FD045091FE046091FF0470910005B8
:103960008091010590910205F9012091F3043091B5
:10397000F4044091F5045091F6046091F7047091BD
:10398000F8048091F9049091FA04C9019F01281B61
:10399000390BC9019C8F8B8F8B8D9C8D009709F4FF
:1039A0006CC1898D9A8D009709F467C18B8D9C8DB0
:1039B000AA2797FDA095BA2FBC01CD010E942A34F9
:1039C0007B018C01898D9A8DAA2797FDA095BA2F2E
:1039D000BC01CD010E942A349B01AC01C801B70192
:1039E0000E94EE32DC01CB018D8B9E8BAF8BB88FAA
:1039F00080910905882F90E0A0E0B0E0BC01CD01E6
:103A00000E94DC347B018C0180910C05882F90E0B2
:103A1000AA2797FDA095BA2FBC01CD010E942A3498
:103A20009B01AC01C801B7010E94EE32DC01CB0161
:103A3000898B9A8BAB8BBC8B80910305909104058D
:103A4000A0910505B0910605BC01CD012FE632E13C
:103A500043E85AE30E949631DC01CB01BC01CD0161
:103A60002D893E894F89588D0E949A3318160CF083
:103A700075C08091030590910405A0910505B09152
:103A80000605BC01CD012D893E894F89588D0E94C4
:103A9000EE32DC01CB01BC01CD0129893A894B8989
:103AA0005C890E94F431DC01CB018D839E83AF835E
:103AB000B88780910C05882F90E09A87898780913C
:103AC0000C05882F90E0AA2797FDA095BA2FBC017E
:103AD000CD010E942A34DC01CB01BC01CD012D8136
:103AE0003E814F8158850E94F431DC01CB01BC013D
:103AF000CD010E948834DC01CB019C878B878B85AC
:103B00009C858F3F910524F180910905882F90E0D5
:103B10009C878B8780910905882F90E0A0E0B0E01A
:103B2000BC01CD010E94DC34DC01CB01BC01CD0124
:103B30002D813E814F8158850E94EE32DC01CB0100
:103B4000BC01CD010E948834DC01CB019A878987B2
:103B50008B859985692F0E948A0B8FC08091030500
:103B600090910405A0910505B0910605BC01CD0119
:103B70002FE632E143E85AE30E94C731DC01CB0172
:103B8000BC01CD012D893E894F89588D0E94FA33A1
:103B900088230CF072C08091030590910405A091D8
:103BA0000505B0910605BC01CD012D893E894F89DF
:103BB000588D0E94EE32DC01CB01BC01CD01298978
:103BC0003A894B895C890E94F431DC01CB018983FD
:103BD0009A83AB83BC8380910905882F90E09C87F2
:103BE0008B8780910905882F90E0A0E0B0E0BC01B0
:103BF000CD010E94DC34DC01CB01BC01CD01298167
:103C00003A814B815C810E94EE32DC01CB01BC0128
:103C1000CD010E948834DC01CB019A878987898590
:103C20009A858F3F910524F180910C05882F90E0B3
:103C30009A87898789859A85AA2797FDA095BA2FA3
:103C4000BC01CD010E942A34DC01CB01BC01CD01B5
:103C500029813A814B815C810E94F431DC01CB01E6
:103C6000BC01CD010E948834DC01CB019C878B878D
:103C70008B859985692F0E948A0B3091D7043D8FDF
:103C80008091D8048E8F2091D9042F8F3091DA043F
:103C900038A38091DB0489A32091DC042AA330910E
:103CA000DD043BA38091DE048CA32D8D213009F02F
:103CB0005CC03E8D332309F058C08F8D882309F0F6
:103CC00054C028A1222309F050C039A1332309F0A0
:103CD0004CC08AA1882309F048C02BA1222309F0F7
:103CE00044C03CA1332309F040C02091EB04309143
:103CF000EC044091ED045091EE046091EF0470915A
:103D0000F0048091F1049091F20420931405309313
:103D10001505409316055093170560931805709389
:103D2000190580931A0590931B052091FB0430918F
:103D3000FC044091FD045091FE046091FF047091D9
:103D4000000580910105909102052093F3043093C2
:103D5000F4044093F5045093F6046093F7047093D1
:103D6000F8048093F9049093FA04809107059091E8
:103D700008058130910541F581E061E00E94270945
:103D80008091970590919805805E9A4F0E940A094C
:103D9000809197059091980501969093980580934E
:103DA000970580919705909198058C0180E295E0A8
:103DB0000E9486380E970817190731F410920805EB
:103DC000109207050E942806E5EAF0E08FEE808356
:103DD000E4EAF0E01082A496DEBFCDBFCF91DF9180
:103DE000FF91EF91BF91AF919F918F917F916F91D3
:103DF0005F914F913F912F911F910F91FF90EF9005
:103E00000F9000925B000F900FBE0F901F901895BF
:103E1000DF93CF93CDB7DEB7E1EAF0E01082E5EAB9
:103E2000F0E08FEE8083E4EAF0E01082E9EAF0E06F
:103E30001082E8EAF0E01082EBEAF0E01082EAEAB1
:103E4000F0E01082EDEAF0E01082ECEAF0E010829F
:103E5000E7EAF0E01082E6EAF0E01082E0EAF0E063
:103E60001082E2EAF0E01082E1EAF0E085E080838F
:103E7000CF91DF910895DF93CF93CDB7DEB7F8945C
:103E80000E94AD0A0E94190B0E94D30E0E94C00A24
:103E90000E94081FE2E7F0E081E08083E1E7F0E0C4
:103EA00081E080830E94480C0E945F0C0E94760C87
:103EB0007894CF91DF910895DF93CF93CDB7DEB79C
:103EC0008091E9049091EA0401969093EA0480932A
:103ED000E9040E94280681E061E00E9427098091A0
:103EE000E9049091EA040E94661785EB93E00E9432
:103EF0000A092CE53FE183E090E0B9010E946E1AC7
:103F0000CF91DF910895DF93CF93CDB7DEB7C4563D
:103F1000D0400FB6F894DEBF0FBECDBF0E943B1F4E
:103F20000E9495000E94940584E68093090584E62A
:103F300080930C051092D7041092D8041092D904E3
:103F40001092DA041092DB041092DC041092DD046B
:103F50001092DE048EEF6EEF0E948A0BCE01019666
:103F600064E670E00E94D016CE0101960E9407110F
:103F7000F5CFEF92FF920F931F937B018C0120E00E
:103F800030E040E05FE40E94CA3388238CF0C8012F
:103F9000B70120E030E040E05FE40E9496310E94EB
:103FA00088349B01AC01205030404040504806C04E
:103FB000C801B7010E9488349B01AC01B901CA0154
:103FC0001F910F91FF90EF900895A2E7B0E0EBEE04
:103FD000FFE10C943039982E892E712E88E0FE0175
:103FE0003196DF01682E1D926A94E9F729833A839E
:103FF0004B835C836D837E839F829887FE01399615
:10400000DF011D928A95E9F7A986BA86CB86DC8600
:10401000ED86FE860F87188B8D819E81AF81B885D6
:10402000B7FD07C0E1961CAE1DAE1EAE1FAEE197F8
:1040300064C0219581E0121608F080E0319591E08E
:10404000131608F090E0B32FB81B81E03B1708F07F
:1040500080E0982B419531E0141608F030E0A42F51
:10406000A91B81E04A1708F080E0382B519591E0B8
:10407000151608F090E0F52FF31B81E05F1708F0AC
:1040800080E0982B619531E0161608F030E0E62FBD
:10409000E91B81E06E1708F080E0382B719541E054
:1040A000171608F040E0572F531B81E0751708F0F2
:1040B00080E0482B892D819591E0181608F090E05A
:1040C000682E641A462D31E0861508F030E0932BF7
:1040D000882D8195891B2983BA83AB83FC83ED836B
:1040E0005E834F8388872FEF3FEF4FEF5FEFE196BF
:1040F0002CAF3DAF4EAF5FAFE1978D859E85AF850D
:10410000B889B7FF6AC0E1964CAD5DAD6EAD7FADCD
:10411000E1974095509560957095E1964CAF5DAFF5
:104120006EAF7FAFE197A19481E01A1408F080E0B0
:10413000B19491E01B1408F090E06B2D681B81E0B6
:10414000B61608F080E0982BC19421E01C1408F00A
:1041500020E05C2D591B81E0C51608F080E0282B7B
:10416000D19491E01D1408F090E04D2D421B81E0A8
:10417000D41608F080E0982BE19421E01E1408F09A
:1041800020E03E2D391B81E0E31608F080E0282B6B
:10419000F19491E01F1408F090E07F2D721B272FFF
:1041A00081E0F71608F080E0982B019511E01016D9
:1041B00008F010E0802F891B982F81E0091708F084
:1041C00080E0182B872D8195811BA9866A875B87E4
:1041D0004C873D872E879F87888B99812A813B81D9
:1041E0004C815D816E817F81A885B9851A850B859B
:1041F000FC84ED84DE84CF84B88888E0E1E18E2EF3
:10420000912C8C0E9D1EF401682E11926A94E9F790
:10421000998B2A8B3B8B4C8B5D8B6E8B7F8BA88F06
:104220009E01275E3F4FF90111928A95E9F7B98FF8
:104230001A8F0B8FFC8EED8EDE8ECF8EB8A2298C5E
:104240003A8C4B8C5C8CED8CFE8C0F8D18A16988A0
:104250007A888B889C8821966CAE7DAE8EAE9FAEA0
:1042600021976D887E888F88988CE114F104010570
:10427000110509F0D9C3621473048404950408F08D
:1042800057C100E0201600E0300601E0400600E0E3
:10429000500688F41FEF211631044104510439F00F
:1042A00030F048E0E42EF12C012D112D18C0EE2441
:1042B000FF24870114C020E0221620E0320620E00F
:1042C000420621E0520630F038E1E32EF12C012DB8
:1042D000112D05C020E1E22EF12C012D112DD2016E
:1042E000C1010E2C04C0B695A795979587950A94A1
:1042F000D2F787539C4FDC012C9180E290E0A0E044
:10430000B0E08E199F09A00BB10B7C018D01E21A60
:10431000F10801091109E114F10401051105D1F1B8
:104320000E2C04C0220C331C441C551C0A94D2F7DA
:10433000A40193010E2C04C0220F331F441F551FEC
:104340000A94D2F780E290E08E199F0921966CAC16
:104350007DAC8EAC9FAC219704C0969487947794E3
:1043600067948A95D2F7622A732A842A952A21961D
:10437000ACACBDACCEACDFAC219704C0AA0CBB1C6E
:10438000CC1CDD1CEA94D2F72196ACAEBDAECEAE0D
:10439000DFAE21976201EE24FF242996CCAEDDAE7C
:1043A000EEAEFFAE299792018101207030702D96FC
:1043B0000CAF1DAF2EAF3FAF2D97C401B301A701C6
:1043C00096010E940E397B018C01C401B30129962C
:1043D0002CAD3DAD4EAD5FAD29970E940E39C901A0
:1043E000DA013C014D01C401B3012D962CAD3DAD68
:1043F0004EAD5FAD2D970E94EF389B01AC01870158
:10440000FF24EE242196ACACBDACCEACDFAC219742
:10441000C601AA27BB2757016801A82AB92ACA2AB8
:10442000DB2AA216B306C406D506E0F40894610898
:10443000710881089108A20CB31CC41CD51CA214DD
:10444000B304C404D50470F0A216B306C406D5069E
:1044500048F408946108710881089108A20CB31C03
:10446000C41CD51CA21AB30AC40AD50AC601B501D8
:1044700029962CAD3DAD4EAD5FAD29970E940E390A
:104480007B018C01C601B50129962CAD3DAD4EAD29
:104490005FAD29970E940E39C901DA015C016D01F7
:1044A000C601B5012D962CAD3DAD4EAD5FAD2D973E
:1044B0000E94EF389B01AC018701FF24EE24219676
:1044C0008CAD9DADAEADBFAD2197A070B070E82AA8
:1044D000F92A0A2B1B2BE216F30604071507C0F472
:1044E0000894A108B108C108D108E20CF31C041D0E
:1044F000151DE214F3040405150550F0E216F30649
:104500000407150728F40894A108B108C108D108C8
:10451000D3019927882786017501E82AF92A0A2BF1
:104520001B2B2596ECAEFDAE0EAF1FAF2597EBC44F
:10453000211431044104510471F461E070E080E021
:1045400090E020E030E040E050E00E940E39C901E8
:10455000DA011C012D0100E0201600E0300601E028
:10456000400600E0500688F41FEF21163104410494
:10457000510431F028F048E050E060E070E017C0EE
:1045800040E050E060E070E012C020E0221620E041
:10459000320620E0420621E0520628F048E150E0D1
:1045A00060E070E004C040E150E060E070E0D20103
:1045B000C101042E04C0B695A795979587950A94D6
:1045C000D2F787539C4FDC012C91E0E2EE2EF12CC8
:1045D000012D112DD801C701841B950BA60BB70B1C
:1045E000821B9109A109B1090097A105B10561F4E8
:1045F00064015301A218B308C408D50831E0632E42
:10460000712C812C912C24C1E3968FAFE397082E57
:1046100004C0220C331C441C551C0A94D2F7EE2D06
:10462000E81B640153010E2E04C0D694C794B794BE
:10463000A7940A94D2F7A4019301E3960FACE397F1
:1046400004C0220F331F441F551F0A94D2F721962E
:104650006CAC7DAC8EAC9FAC21970E2E04C09694B2
:104660008794779467940A94D2F784017301E22ABD
:10467000F32A042B152BE9AEFAAE0BAF1CAF3201B7
:1046800088249924920181012070307061960CAFCA
:104690001DAF2EAF3FAF6197C601B501A4019301D5
:1046A0000E940E397B018C01C601B501A401930162
:1046B0000E940E39C901DA0165968CAF9DAFAEAF8D
:1046C000BFAF6597BC01CD0161962CAD3DAD4EAD40
:1046D0005FAD61970E94EF389B01AC018701FF2419
:1046E000EE24A9ACBAACCBACDCACC601AA27BB2784
:1046F0005C016D01AE28BF28C02AD12AA216B306DC
:10470000C406D50660F565966CAD7DAD8EAD9FADEA
:104710006597615070408040904065966CAF7DAF6A
:104720008EAF9FAF6597A20CB31CC41CD51CA214FE
:10473000B304C404D50498F0A216B306C406D50683
:1047400070F4615070408040904065966CAF7DAFD2
:104750008EAF9FAF6597A20CB31CC41CD51CA21AC8
:10476000B30AC40AD50AC601B501A40193010E9487
:104770000E397B018C01C601B501A40193010E9491
:104780000E39C901DA013C014D01C401B301619642
:104790002CAD3DAD4EAD5FAD61970E94EF389B01F2
:1047A000AC018701FF24EE2489AD9AADABADBCAD61
:1047B000A070B07057016801A82AB92ACA2ADB2A5A
:1047C000A216B306C406D506E0F408946108710881
:1047D00081089108A20CB31CC41CD51CA214B304FC
:1047E000C404D50470F0A216B306C406D50648F476
:1047F00008946108710881089108A20CB31CC41CBC
:10480000D51C21968CAD9DADAEADBFAD2197E39685
:104810000FACE39704C0880F991FAA1FBB1F0A940F
:10482000D2F721968CAF9DAFAEAFBFAF2197A21A42
:10483000B30AC40AD50A6596ECACFDAC0EAD1FAD4B
:104840006597D70199278827682A792A8A2A9B2A77
:1048500082012227332769960CAF1DAF2EAF3FAFE1
:104860006997A2019101407050706D962CAF3DAFD9
:104870004EAF5FAF6D97C601B50169962CAD3DADEA
:104880004EAD5FAD69970E940E397B018C01C60168
:10489000B50169962CAD3DAD4EAD5FAD69970E94F7
:1048A0000E39C901DA01A1968CAF9DAFAEAFBFAF93
:1048B000A197BC01CD016D962CAD3DAD4EAD5FAD68
:1048C0006D970E94EF389B01AC018701FF24EE2415
:1048D0002196ACACBDACCEACDFAC2197C601AA270B
:1048E000BB2757016801A82AB92ACA2ADB2AA216BF
:1048F000B306C406D50660F5A1966CAD7DAD8EAD50
:104900009FADA1976150704080409040A1966CAFE0
:104910007DAF8EAF9FAFA197A20CB31CC41CD51C5A
:10492000A214B304C404D50498F0A216B306C406B6
:10493000D50670F46150704080409040A1966CAFF5
:104940007DAF8EAF9FAFA197A20CB31CC41CD51C2A
:10495000A21AB30AC40AD50AC601B50169962CADDC
:104960003DAD4EAD5FAD69970E940E397B018C0164
:10497000C601B50169962CAD3DAD4EAD5FAD6997F1
:104980000E940E39C901DA015C016D01C601B50151
:104990006D962CAD3DAD4EAD5FAD6D970E94EF387D
:1049A0009B01AC018701FF24EE2421968CAD9DADC7
:1049B000AEADBFAD2197A070B070E82AF92A0A2BDE
:1049C0001B2BE216F30604071507C0F40894A10890
:1049D000B108C108D108E20CF31C041D151DE21436
:1049E000F3040405150550F0E216F3060407150755
:1049F00028F40894A108B108C108D108A196ECAC2C
:104A0000FDAC0EAD1FADA197D70199278827960160
:104A10008501082B192B2A2B3B2B25960CAF1DAF9C
:104A20002EAF3FAF259772C26E147F0480069106A9
:104A300008F45FC220E0E21620E0F20621E002075F
:104A400020E0120788F43FEFE316F1040105110599
:104A500031F028F048E050E060E070E017C040E03E
:104A600050E060E070E012C040E0E41640E0F40680
:104A700040E0040741E0140728F048E150E060E01E
:104A800070E004C040E150E060E070E0D801C70190
:104A9000042E04C0B695A795979587950A94D2F7EA
:104AA00087539C4FDC012C9130E2A32EB12CC12CFA
:104AB000D12CD601C501841B950BA60BB70B821B0D
:104AC0009109A109B1090097A105B10599F4E6146E
:104AD000F7040805190508F4FEC121966CAC7DACFD
:104AE0008EAC9FAC2197621473048404950408F083
:104AF000F2C1FFC1E2968FAFE297082E04C0EE0C20
:104B0000FF1C001F111F0A94D2F76A2D681BD201E7
:104B1000C101062E04C0B695A795979587950A946E
:104B2000D2F75C016D01AE28BF28C02AD12AADAAF8
:104B3000BEAACFAAD8AE72016101E2960FACE2978D
:104B400004C0CC0CDD1CEE1CFF1C0A94D2F7C9AAD1
:104B5000DAAAEBAAFCAA64015301062E04C0D6947B
:104B6000C794B794A7940A94D2F7D401C301E296EC
:104B70000FACE29704C0880F991FAA1FBB1F0A94AD
:104B8000D2F72196ECACFDAC0EAD1FAD219704C061
:104B900016950795F794E7946A95D2F7370148017F
:104BA000682A792A8A2A9B2A6DA67EA68FA698AAA9
:104BB000EDA8FEA80FA918AD380188249924980102
:104BC000870120703070A5960CAF1DAF2EAF3FAFA0
:104BD000A597C601B501A40193010E940E397B017E
:104BE0008C01C601B501A40193010E940E39C901CF
:104BF000DA011C012D01C201B101A5962CAD3DAD1C
:104C00004EAD5FADA5970E94EF389B01AC018701C7
:104C1000FF24EE24ADA4BEA4CFA4D8A8C601AA2721
:104C2000BB2757016801A82AB92ACA2ADB2AA2167B
:104C3000B306C406D50600F50894210831084108DA
:104C40005108EDA8FEA80FA918ADAE0CBF1CC01EE0
:104C5000D11EAE14BF04C006D10670F0A216B30672
:104C6000C406D50648F408942108310841085108C3
:104C7000AE0CBF1CC01ED11EA21AB30AC40AD50AAC
:104C8000C601B501A40193010E940E397B018C017C
:104C9000C601B501A40193010E940E39C901DA01D0
:104CA0003C014D01C401B301A5962CAD3DAD4EAD07
:104CB0005FADA5970E94EF389B01AC018701FF24EF
:104CC000EE248DA59EA5AFA5B8A9A070B070570120
:104CD0006801A82AB92ACA2ADB2AA216B306C40682
:104CE000D50600F5089461087108810891086DA93E
:104CF0007EA98FA998ADA60EB71EC81ED91EA616EE
:104D0000B706C806D90670F0A216B306C406D506C3
:104D100048F408946108710881089108A60EB71E2E
:104D2000C81ED91ED601C501821B930BA40BB50B5F
:104D300089A79AA7ABA7BCA7D101992788276401A7
:104D40005301A82AB92ACA2ADB2A2596ACAEBDAEE1
:104D5000CEAEDFAE2597860175012FEF3FEF40E025
:104D600050E0E222F32204231523A60166277727C9
:104D7000AD964CAF5DAF6EAF7FAFAD97A9A8BAA8A7
:104D8000CBA8DCA86FEF7FEF80E090E0A622B722EF
:104D9000C822D92289A99AA9ABA9BCA91D0144247A
:104DA0005524C801B701A60195010E94EF38A996C4
:104DB0006CAF7DAF8EAF9FAFA997C801B701A201BD
:104DC00091010E94EF383B014C01AD966CAD7DAD79
:104DD0008EAD9FADAD97A60195010E94EF387B0186
:104DE0008C01AD966CAD7DAD8EAD9FADAD97A20142
:104DF00091010E94EF385B016C01A8019701260D1B
:104E0000371D481D591DA9966CAC7DAC8EAC9FAC6E
:104E1000A997C401AA27BB27280F391F4A1F5B1F68
:104E20002E153F054007510748F4E12CF12C61E0B5
:104E3000062F112DAE0CBF1CC01ED11ECA01AA2701
:104E4000BB27BC01CD016A0D7B1D8C1D9D1D69A476
:104E50007AA48BA49CA4661677068806990650F15E
:104E6000661577058805990509F04DC0D901992780
:104E70008827A9962CAD3DAD4EAD5FADA99740708A
:104E80005070820F931FA41FB51F21962CAD3DAD0E
:104E90004EAD5FAD2197E2960FACE29704C0220FB2
:104EA000331F441F551F0A94D2F7281739074A07A2
:104EB0005B0748F525960CAD1DAD2EAD3FAD259792
:104EC000015010402040304025960CAF1DAF2EAF52
:104ED0003FAF259718C066247724430121E030E0D6
:104EE00040E050E025962CAF3DAF4EAF5FAF259729
:104EF0000DC066247724430125961CAE1DAE1EAE60
:104F00001FAE259703C0662477244301FE01B196A6
:104F100088E0DF011D928A95E9F72596ACACBDAC1F
:104F2000CEACDFAC2597A9A2BAA2CBA2DCA26DA21F
:104F30007EA28FA298A622962FAD22973AA14BA1CE
:104F40005CA1662D7EA1DFA098A5E196ECACFDAC3E
:104F50000EAD1FADE197E114F1040105110509F44F
:104F600056C0219581E0121608F080E03195E1E00D
:104F7000131608F0E0E0932E981A81E0391508F036
:104F800080E0E82B4195F1E0141608F0F0E0A42E43
:104F9000AE1A81E04A1508F080E0F82B5195E1E067
:104FA000151608F0E0E0B52EBF1A81E05B1508F099
:104FB00080E0E82B6195F1E0161608F0F0E0A62FEE
:104FC000AE1B81E06A1708F080E0F82B7195E1E0F4
:104FD000171608F0E0E0C72ECF1A81E07C1508F024
:104FE00080E0E82B8D2D8195F1E0181608F0F0E0B7
:104FF000D82EDE1AE1E08D1508F0E0E0FE2B892FB7
:105000008195392DA5016A2F7C2D982F9F1B8D2D01
:10501000CE58DF4FE2E10C944C39A7E7B0E0E3E172
:10502000F8E20C943039982E892E712E88E0FE011A
:105030003196DF01682E1D926A94E9F729833A833D
:105040004B835C836D837E839F829887FE013996B4
:10505000DF011D928A95E9F7A986BA86CB86DC86A0
:10506000ED86FE860F87188B8D819E81AF81B88576
:10507000B7FD07C0E1961CAE1DAE1EAE1FAEE19798
:1050800064C0219581E0121608F080E0319591E02E
:10509000131608F090E0B32FB81B81E03B1708F01F
:1050A00080E0982B419531E0141608F030E0A42FF1
:1050B000A91B81E04A1708F080E0382B519591E058
:1050C000151608F090E0F52FF31B81E05F1708F04C
:1050D00080E0982B619531E0161608F030E0E62F5D
:1050E000E91B81E06E1708F080E0382B719541E0F4
:1050F000171608F040E0572F531B81E0751708F092
:1051000080E0482B892D819591E0181608F090E0F9
:10511000682E641A462D31E0861508F030E0932B96
:10512000882D8195891B2983BA83AB83FC83ED830A
:105130005E834F8388872FEF3FEF4FEF5FEFE1965E
:105140002CAF3DAF4EAF5FAFE1978D859E85AF85AC
:10515000B889B7FF5AC0A19481E01A1408F080E022
:10516000B19491E01B1408F090E06B2D681B81E076
:10517000B61608F080E0982BC19421E01C1408F0CA
:1051800020E05C2D591B81E0C51608F080E0282B3B
:10519000D19491E01D1408F090E04D2D421B81E068
:1051A000D41608F080E0982BE19421E01E1408F05A
:1051B00020E03E2D391B81E0E31608F080E0282B2B
:1051C000F19491E01F1408F090E07F2D721B272FBF
:1051D00081E0F71608F080E0982B019511E0101699
:1051E00008F010E0802F891B982F81E0091708F044
:1051F00080E0182B872D8195811BA9866A875B87A4
:105200004C873D872E879F87888B99812A813B8198
:105210004C815D816E817F81A885B9851A850B855A
:10522000FC84ED84DE84CF84B88888E0E9E18E2EAA
:10523000912C8C0E9D1EF401682E11926A94E9F750
:10524000998F2A8F3B8F4C8F5D8F6E8F7F8FA8A396
:105250009E012F5D3F4FF90111928A95E9F7B9A39D
:105260001AA30BA3FCA2EDA2DEA2CFA2B8A629A08E
:105270003AA04BA05CA0ADA0BEA0CFA0D8A4498D01
:105280005A8D6B8D7C8DE5964FAFE597E6965FAFB7
:10529000E697E7966FAFE797E8967FAFE897E896CF
:1052A0006CAC7DAC8EAC9FACE8972D966CAE7DAEB1
:1052B0008EAE9FAE2D978D8D9E8D2F8D38A13C018A
:1052C000490161966CAE7DAE8EAE9FAE6197A11422
:1052D000B104C104D10409F028C362147304840426
:1052E000950408F00EC100E0201600E0300601E051
:1052F000400600E0500688F41FEF211631044104F7
:10530000510439F030F018E0E12EF12C012D112D6F
:1053100018C0EE24FF24870114C020E0221620E0EC
:10532000320620E0420621E0520630F0B8E1EB2ED2
:10533000F12C012D112D05C0A0E1EA2EF12C012D3B
:10534000112DD201C1010E2C04C0B695A7959795D9
:1053500087950A94D2F787539C4FDC012C9180E209
:1053600090E0A0E0B0E08E199F09A00BB10B5C01AA
:105370006D01A21AB108C108D1086596ACAEBDAEE8
:10538000CEAEDFAE6597A114B104C104D10409F417
:1053900045C062966FAD6297062E04C0220C331C86
:1053A000441C551C0A94D2F7A4019301062E04C094
:1053B000220F331F441F551F0A94D2F780E290E05A
:1053C0008A199B09E896CCACDDACEEACFFACE89753
:1053D00004C0F694E794D794C7948A95D2F78701CE
:1053E0007601E22AF32A042B152B6196ECAEFDAE72
:1053F0000EAF1FAF6197E8960CAD1DAD2EAD3FAD62
:10540000E89704C0000F111F221F331F6A95D2F7BF
:105410002D960CAF1DAF2EAF3FAF2D9732018824D4
:105420009924A20191014070507069962CAF3DAF54
:105430004EAF5FAF699761966CAD7DAD8EAD9FADA0
:105440006197A40193010E940E397B018C01619642
:105450006CAD7DAD8EAD9FAD6197A40193010E94AF
:105460000E39CA01B90169962CAD3DAD4EAD5FADA7
:1054700069970E94EF389B01AC018701FF24EE245D
:105480002D96ACACBDACCEACDFAC2D97C601AA2737
:10549000BB2757016801A82AB92ACA2ADB2AA21603
:1054A000B306C406D50690F4A20CB31CC41CD51CCC
:1054B000A214B304C404D50448F0A216B306C4066B
:1054C000D50620F4A20CB31CC41CD51CA21AB30A26
:1054D000C40AD50AC601B501A40193010E940E3980
:1054E0007B018C01C601B501A40193010E940E3914
:1054F000CA01B90169962CAD3DAD4EAD5FAD69975E
:10550000C8C1211431044104510471F461E070E018
:1055100080E090E020E030E040E050E00E940E3972
:10552000C901DA011C012D0100E0201600E030065F
:1055300001E0400600E0500688F41FEF2116310418
:105540004104510439F030F068E0E62EF12C012DD1
:10555000112D18C0EE24FF24870114C020E022166C
:1055600020E0320620E0420621E0520630F058E109
:10557000E52EF12C012D112D05C040E1E42EF12C7A
:10558000012D112DD201C1010E2C04C0B695A79595
:10559000979587950A94D2F787539C4FDC012C91FD
:1055A00030E2A32EB12CC12CD12CD601C5018E190D
:1055B0009F09A00BB10B7C018D01E21AF1080109D2
:1055C00011096596ECAEFDAE0EAF1FAF6597E11405
:1055D000F1040105110539F464015301A218B3085F
:1055E000C408D508ECC06296FFAC6297E496FFAEA3
:1055F000E4970F2C04C0220C331C441C551C0A9445
:10560000D2F78A2D8F1964015301082E04C0D69455
:10561000C794B794A7940A94D2F7A401930104C045
:10562000220F331F441F551FFA94D2F7E8966CAC33
:105630007DAC8EAC9FACE89704C096948794779429
:1056400067948A95D2F784017301E22AF32A042B26
:10565000152B2996ECAEFDAE0EAF1FAF2997320188
:105660008824992492018101207030706D960CAFCE
:105670001DAF2EAF3FAF6D97C601B501A4019301D9
:105680000E940E397B018C01C601B501A401930172
:105690000E940E39CA01B9016D962CAD3DAD4EADDB
:1056A0005FAD6D970E94EF389B01AC018701FF242D
:1056B000EE242996ACACBDACCEACDFAC2997C601CC
:1056C000AA27BB275C016D01AE28BF28C02AD12ABA
:1056D000A216B306C406D50690F4A20CB31CC41CD3
:1056E000D51CA214B304C404D50448F0A216B30612
:1056F000C406D50620F4A20CB31CC41CD51CA21AE7
:10570000B30AC40AD50AC601B501A40193010E94D7
:105710000E397B018C01C601B501A40193010E94E1
:105720000E39CA01B9016D962CAD3DAD4EAD5FADE0
:105730006D970E94EF389B01AC018701FF24EE2496
:1057400029968CAD9DADAEADBFAD2997A070B07060
:1057500057016801A82AB92ACA2ADB2AA216B30669
:10576000C406D50690F4A20CB31CC41CD51CA2140C
:10577000B304C404D50448F0A216B306C406D50683
:1057800020F4A20CB31CC41CD51CE896ECACFDACF8
:105790000EAD1FADE897E4960FACE49704C0EE0C95
:1057A000FF1C001F111F0A94D2F72D96ECAEFDAE20
:1057B0000EAF1FAF2D97A21AB30AC40AD50A320141
:1057C000882499249201810120703070A1960CAF39
:1057D0001DAF2EAF3FAFA197C601B501A401930144
:1057E0000E940E397B018C01C601B501A401930111
:1057F0000E940E39CA01B901A1962CAD3DAD4EAD46
:105800005FADA1970E94EF389B01AC018701FF2497
:10581000EE242D96ACACBDACCEACDFAC2D97C60162
:10582000AA27BB2757016801A82AB92ACA2ADB2A56
:10583000A216B306C406D50690F4A20CB31CC41C71
:10584000D51CA214B304C404D50448F0A216B306B0
:10585000C406D50620F4A20CB31CC41CD51CA21A85
:10586000B30AC40AD50AC601B501A40193010E9476
:105870000E397B018C01C601B501A40193010E9480
:105880000E39CA01B901A1962CAD3DAD4EAD5FAD4B
:10589000A1970E94EF389B01AC018701FF24EE2401
:1058A0002D968CAD9DADAEADBFAD2D97A070B070F7
:1058B000E82AF92A0A2B1B2BE216F3060407150720
:1058C00090F4E20CF31C041D151DE214F30404050E
:1058D000150548F0E216F3060407150720F4E20C5C
:1058E000F31C041D151DE21AF30A040B150BD80155
:1058F000C70162960FAC629704C0B695A7959795BD
:1059000087950A94D2F789A79AA7ABA7BCA71DA62B
:105910001EA61FA618AA898B8AA58A8B8BA58B8B9E
:105920008CA58C8B8DA58D8B2FC36A147B048C0466
:105930009D0448F4498B5A8B6B8B7C8B8D8B9E8B93
:105940002F8B388F27C300E0A01600E0B00601E0DF
:10595000C00600E0D00688F41FEFA116B104C10410
:10596000D10439F030F098E0E92EF12C012D112D01
:1059700018C0EE24FF24870114C020E0A21620E006
:10598000B20620E0C20621E0D20630F088E1E82E1F
:10599000F12C012D112D05C000E1E02EF12C012D7F
:1059A000112DD601C5010E2C04C0B695A79597956B
:1059B00087950A94D2F787539C4FDC012C9180E2A3
:1059C00090E0A0E0B0E08E199F09A00BB10B821B04
:1059D0009109A109B1090097A105B10509F059C0C4
:1059E000A614B704C804D90470F0E896ECACFDAC7A
:1059F0000EAD1FADE897E214F3040405150518F485
:105A0000D801C7012FC0E8968CAD9DADAEADBFAD3E
:105A1000E89782199309A409B509A40193012A19E9
:105A20003B094C095D09AA24BB246501E8966CACCE
:105A30007DAC8EAC9FACE897681679068A069B060B
:105A400028F411E0A12EB12CC12CD12C79018A01AE
:105A5000EA18FB080C091D096196ECAEFDAE0EAF0D
:105A60001FAF619789A79AA7ABA7BCA761960CAD9A
:105A70001DAD2EAD3FAD61970DA71EA72FA738AB6B
:105A8000898B8AA58A8B8BA58B8B8CA58C8B0D8B98
:105A90007BC2E3968FAFE397A6019501082E04C061
:105AA000220F331F441F551F0A94D2F710E2181B10
:105AB000E2961FAFE297D201C101012E04C0B69554
:105AC000A795979587950A94D2F75C016D01A22A54
:105AD000B32AC42AD52A2596ACAEBDAECEAEDFAE73
